{
  "_format": "hh-sol-artifact-1",
  "contractName": "Voting",
  "sourceName": "contracts/Voting.sol",
  "abi": [
    {
      "inputs": [],
      "stateMutability": "nonpayable",
      "type": "constructor"
    },
    {
      "anonymous": false,
      "inputs": [
        {
          "indexed": true,
          "internalType": "uint256",
          "name": "eid",
          "type": "uint256"
        },
        {
          "indexed": true,
          "internalType": "uint256",
          "name": "cid",
          "type": "uint256"
        },
        {
          "indexed": false,
          "internalType": "string",
          "name": "name",
          "type": "string"
        }
      ],
      "name": "candidateAdded",
      "type": "event"
    },
    {
      "anonymous": false,
      "inputs": [
        {
          "indexed": true,
          "internalType": "uint256",
          "name": "eid",
          "type": "uint256"
        },
        {
          "indexed": true,
          "internalType": "string",
          "name": "name",
          "type": "string"
        },
        {
          "indexed": false,
          "internalType": "uint256",
          "name": "endTime",
          "type": "uint256"
        }
      ],
      "name": "electionCreated",
      "type": "event"
    },
    {
      "anonymous": false,
      "inputs": [
        {
          "indexed": false,
          "internalType": "uint256",
          "name": "eid",
          "type": "uint256"
        },
        {
          "indexed": false,
          "internalType": "uint256",
          "name": "winner_id",
          "type": "uint256"
        },
        {
          "indexed": false,
          "internalType": "string",
          "name": "winner_name",
          "type": "string"
        },
        {
          "indexed": false,
          "internalType": "uint256",
          "name": "voteCount",
          "type": "uint256"
        }
      ],
      "name": "electionEnded",
      "type": "event"
    },
    {
      "anonymous": false,
      "inputs": [
        {
          "indexed": true,
          "internalType": "uint256",
          "name": "eid",
          "type": "uint256"
        },
        {
          "indexed": true,
          "internalType": "uint256",
          "name": "cid",
          "type": "uint256"
        }
      ],
      "name": "votecast",
      "type": "event"
    },
    {
      "inputs": [
        {
          "internalType": "uint256",
          "name": "eid",
          "type": "uint256"
        },
        {
          "internalType": "string",
          "name": "name",
          "type": "string"
        }
      ],
      "name": "addCandidate",
      "outputs": [],
      "stateMutability": "nonpayable",
      "type": "function"
    },
    {
      "inputs": [],
      "name": "admin",
      "outputs": [
        {
          "internalType": "address",
          "name": "",
          "type": "address"
        }
      ],
      "stateMutability": "view",
      "type": "function"
    },
    {
      "inputs": [
        {
          "internalType": "string",
          "name": "name",
          "type": "string"
        },
        {
          "internalType": "uint256",
          "name": "duration",
          "type": "uint256"
        }
      ],
      "name": "createElection",
      "outputs": [],
      "stateMutability": "nonpayable",
      "type": "function"
    },
    {
      "inputs": [],
      "name": "electionCount",
      "outputs": [
        {
          "internalType": "uint256",
          "name": "",
          "type": "uint256"
        }
      ],
      "stateMutability": "view",
      "type": "function"
    },
    {
      "inputs": [
        {
          "internalType": "uint256",
          "name": "",
          "type": "uint256"
        }
      ],
      "name": "elections",
      "outputs": [
        {
          "internalType": "uint256",
          "name": "id",
          "type": "uint256"
        },
        {
          "internalType": "string",
          "name": "name",
          "type": "string"
        },
        {
          "internalType": "bool",
          "name": "isActive",
          "type": "bool"
        },
        {
          "internalType": "uint256",
          "name": "endtime",
          "type": "uint256"
        },
        {
          "internalType": "uint256",
          "name": "candCount",
          "type": "uint256"
        },
        {
          "internalType": "uint256",
          "name": "totalVotes",
          "type": "uint256"
        }
      ],
      "stateMutability": "view",
      "type": "function"
    },
    {
      "inputs": [
        {
          "internalType": "uint256",
          "name": "eid",
          "type": "uint256"
        }
      ],
      "name": "endElection",
      "outputs": [],
      "stateMutability": "nonpayable",
      "type": "function"
    },
    {
      "inputs": [
        {
          "internalType": "uint256",
          "name": "eid",
          "type": "uint256"
        },
        {
          "internalType": "uint256",
          "name": "cid",
          "type": "uint256"
        }
      ],
      "name": "getCandidate",
      "outputs": [
        {
          "internalType": "uint256",
          "name": "",
          "type": "uint256"
        },
        {
          "internalType": "string",
          "name": "",
          "type": "string"
        },
        {
          "internalType": "uint256",
          "name": "",
          "type": "uint256"
        }
      ],
      "stateMutability": "view",
      "type": "function"
    },
    {
      "inputs": [
        {
          "internalType": "uint256",
          "name": "eid",
          "type": "uint256"
        }
      ],
      "name": "getWinner",
      "outputs": [
        {
          "internalType": "uint256",
          "name": "",
          "type": "uint256"
        },
        {
          "internalType": "string",
          "name": "",
          "type": "string"
        },
        {
          "internalType": "uint256",
          "name": "",
          "type": "uint256"
        }
      ],
      "stateMutability": "view",
      "type": "function"
    },
    {
      "inputs": [
        {
          "internalType": "uint256",
          "name": "eid",
          "type": "uint256"
        },
        {
          "internalType": "uint256",
          "name": "cid",
          "type": "uint256"
        }
      ],
      "name": "vote",
      "outputs": [],
      "stateMutability": "nonpayable",
      "type": "function"
    }
  ],
  "bytecode": "0x608060405234801561001057600080fd5b5033600160006101000a81548173ffffffffffffffffffffffffffffffffffffffff021916908373ffffffffffffffffffffffffffffffffffffffff160217905550611ca5806100616000396000f3fe608060405234801561001057600080fd5b50600436106100935760003560e01c80635e6fef01116100665780635e6fef0114610134578063997d2830146101695780639c98bcbb14610187578063b384abef146101a3578063f851a440146101bf57610093565b80631750a3d0146100985780634129b2c9146100b4578063432cf2ce146100e65780634bd4644814610102575b600080fd5b6100b260048036038101906100ad9190611170565b6101dd565b005b6100ce60048036038101906100c991906111cc565b610454565b6040516100dd93929190611287565b60405180910390f35b61010060048036038101906100fb91906112c5565b6105a4565b005b61011c60048036038101906101179190611321565b610719565b60405161012b93929190611287565b60405180910390f35b61014e600480360381019061014991906111cc565b6109c2565b6040516101609695949392919061137c565b60405180910390f35b610171610a93565b60405161017e91906113e4565b60405180910390f35b6101a1600480360381019061019c91906111cc565b610a99565b005b6101bd60048036038101906101b89190611321565b610cce565b005b6101c7610fba565b6040516101d49190611440565b60405180910390f35b600160009054906101000a900473ffffffffffffffffffffffffffffffffffffffff1673ffffffffffffffffffffffffffffffffffffffff163373ffffffffffffffffffffffffffffffffffffffff161461026d576040517f08c379a0000000000000000000000000000000000000000000000000000000008152600401610264906114a7565b60405180910390fd5b81600115156002600083815260200190815260200160002060020160009054906101000a900460ff161515146102d8576040517f08c379a00000000000000000000000000000000000000000000000000000000081526004016102cf90611513565b60405180910390fd5b4260026000838152602001908152602001600020600301541015610331576040517f08c379a00000000000000000000000000000000000000000000000000000000081526004016103289061157f565b60405180910390fd5b8260008111801561034457508060005410155b610383576040517f08c379a000000000000000000000000000000000000000000000000000000000815260040161037a906115eb565b60405180910390fd5b6000600260008681526020019081526020016000209050600081600501600081546103ad9061163a565b919050819055905060405180606001604052808281526020018681526020016000815250826004016000838152602001908152602001600020600082015181600001556020820151816001019081610405919061188e565b506040820151816002015590505080867f7dfb58188eccf10f33924875fc8c15f7b3362b898b4c53f4977b87901461f5ea876040516104449190611960565b60405180910390a3505050505050565b60006060600080600260008681526020019081526020016000209050600080600090506000600190505b836005015481116104db57836004016000828152602001908152602001600020600201548210156104c8578360040160008281526020019081526020016000206002015491508092505b80806104d39061163a565b91505061047e565b508160026000898152602001908152602001600020600401600084815260200190815260200160002060010182818054610514906116b1565b80601f0160208091040260200160405190810160405280929190818152602001828054610540906116b1565b801561058d5780601f106105625761010080835404028352916020019161058d565b820191906000526020600020905b81548152906001019060200180831161057057829003601f168201915b505050505091509550955095505050509193909250565b600160009054906101000a900473ffffffffffffffffffffffffffffffffffffffff1673ffffffffffffffffffffffffffffffffffffffff163373ffffffffffffffffffffffffffffffffffffffff1614610634576040517f08c379a000000000000000000000000000000000000000000000000000000000815260040161062b906114a7565b60405180910390fd5b6000808154809291906106469061163a565b919050555060006002600080548152602001908152602001600020905060005481600001819055508281600101908161067f919061188e565b5060018160020160006101000a81548160ff02191690831515021790555081426106a99190611982565b816003018190555060008160070181905550806001016040516106cc9190611a44565b604051809103902081600001547f812cf74ad34389ce108cafb2c53a5ec0bc15d846f6f4af080f5a8e01d978a07e836003015460405161070c91906113e4565b60405180910390a3505050565b6000606060008460008111801561073257508060005410155b610771576040517f08c379a0000000000000000000000000000000000000000000000000000000008152600401610768906115eb565b60405180910390fd5b600160009054906101000a900473ffffffffffffffffffffffffffffffffffffffff1673ffffffffffffffffffffffffffffffffffffffff163373ffffffffffffffffffffffffffffffffffffffff1614610801576040517f08c379a00000000000000000000000000000000000000000000000000000000081526004016107f8906114a7565b60405180910390fd5b85600115156002600083815260200190815260200160002060020160009054906101000a900460ff1615151461086c576040517f08c379a000000000000000000000000000000000000000000000000000000000815260040161086390611513565b60405180910390fd5b42600260008381526020019081526020016000206003015410156108c5576040517f08c379a00000000000000000000000000000000000000000000000000000000081526004016108bc9061157f565b60405180910390fd5b6000600260008981526020019081526020016000209050600081600401600089815260200190815260200160002060405180606001604052908160008201548152602001600182018054610918906116b1565b80601f0160208091040260200160405190810160405280929190818152602001828054610944906116b1565b80156109915780601f1061096657610100808354040283529160200191610991565b820191906000526020600020905b81548152906001019060200180831161097457829003601f168201915b5050505050815260200160028201548152505090508781602001518260400151965096509650505050509250925092565b60026020528060005260406000206000915090508060000154908060010180546109eb906116b1565b80601f0160208091040260200160405190810160405280929190818152602001828054610a17906116b1565b8015610a645780601f10610a3957610100808354040283529160200191610a64565b820191906000526020600020905b815481529060010190602001808311610a4757829003601f168201915b5050505050908060020160009054906101000a900460ff16908060030154908060050154908060070154905086565b60005481565b600160009054906101000a900473ffffffffffffffffffffffffffffffffffffffff1673ffffffffffffffffffffffffffffffffffffffff163373ffffffffffffffffffffffffffffffffffffffff1614610b29576040517f08c379a0000000000000000000000000000000000000000000000000000000008152600401610b20906114a7565b60405180910390fd5b80600081118015610b3c57508060005410155b610b7b576040517f08c379a0000000000000000000000000000000000000000000000000000000008152600401610b72906115eb565b60405180910390fd5b6000600260008481526020019081526020016000209050600115158160020160009054906101000a900460ff16151514610bea576040517f08c379a0000000000000000000000000000000000000000000000000000000008152600401610be190611aa7565b60405180910390fd5b60008160020160006101000a81548160ff021916908315150217905550600080600090506000600190505b83600501548111610c725783600401600082815260200190815260200160002060020154821015610c5f578360040160008281526020019081526020016000206002015491508092505b8080610c6a9061163a565b915050610c15565b507fe1ccaef6aad2fa0bbbf35b94b26f5a255435fd444716406c43cd235994772b3f858385600401600086815260200190815260200160002060010184604051610cbf9493929190611b4b565b60405180910390a15050505050565b81600115156002600083815260200190815260200160002060020160009054906101000a900460ff16151514610d39576040517f08c379a0000000000000000000000000000000000000000000000000000000008152600401610d3090611513565b60405180910390fd5b4260026000838152602001908152602001600020600301541015610d92576040517f08c379a0000000000000000000000000000000000000000000000000000000008152600401610d899061157f565b60405180910390fd5b82600081118015610da557508060005410155b610de4576040517f08c379a0000000000000000000000000000000000000000000000000000000008152600401610ddb906115eb565b60405180910390fd5b6000600260008681526020019081526020016000209050600015158160060160003373ffffffffffffffffffffffffffffffffffffffff1673ffffffffffffffffffffffffffffffffffffffff16815260200190815260200160002060009054906101000a900460ff16151514610e90576040517f08c379a0000000000000000000000000000000000000000000000000000000008152600401610e8790611be3565b60405180910390fd5b83816005015410158015610ea45750600084115b610ee3576040517f08c379a0000000000000000000000000000000000000000000000000000000008152600401610eda90611c4f565b60405180910390fd5b806007016000815480929190610ef89061163a565b919050555060018160060160003373ffffffffffffffffffffffffffffffffffffffff1673ffffffffffffffffffffffffffffffffffffffff16815260200190815260200160002060006101000a81548160ff0219169083151502179055508060040160008581526020019081526020016000206002016000815480929190610f809061163a565b919050555083857f5278d3ef2e4f3453f9119a5d3c0f6cea5b3e3ab271f692dc6766b054bf0e597c60405160405180910390a35050505050565b600160009054906101000a900473ffffffffffffffffffffffffffffffffffffffff1681565b6000604051905090565b600080fd5b600080fd5b6000819050919050565b61100781610ff4565b811461101257600080fd5b50565b60008135905061102481610ffe565b92915050565b600080fd5b600080fd5b6000601f19601f8301169050919050565b7f4e487b7100000000000000000000000000000000000000000000000000000000600052604160045260246000fd5b61107d82611034565b810181811067ffffffffffffffff8211171561109c5761109b611045565b5b80604052505050565b60006110af610fe0565b90506110bb8282611074565b919050565b600067ffffffffffffffff8211156110db576110da611045565b5b6110e482611034565b9050602081019050919050565b82818337600083830152505050565b600061111361110e846110c0565b6110a5565b90508281526020810184848401111561112f5761112e61102f565b5b61113a8482856110f1565b509392505050565b600082601f8301126111575761115661102a565b5b8135611167848260208601611100565b91505092915050565b6000806040838503121561118757611186610fea565b5b600061119585828601611015565b925050602083013567ffffffffffffffff8111156111b6576111b5610fef565b5b6111c285828601611142565b9150509250929050565b6000602082840312156111e2576111e1610fea565b5b60006111f084828501611015565b91505092915050565b61120281610ff4565b82525050565b600081519050919050565b600082825260208201905092915050565b60005b83811015611242578082015181840152602081019050611227565b60008484015250505050565b600061125982611208565b6112638185611213565b9350611273818560208601611224565b61127c81611034565b840191505092915050565b600060608201905061129c60008301866111f9565b81810360208301526112ae818561124e565b90506112bd60408301846111f9565b949350505050565b600080604083850312156112dc576112db610fea565b5b600083013567ffffffffffffffff8111156112fa576112f9610fef565b5b61130685828601611142565b925050602061131785828601611015565b9150509250929050565b6000806040838503121561133857611337610fea565b5b600061134685828601611015565b925050602061135785828601611015565b9150509250929050565b60008115159050919050565b61137681611361565b82525050565b600060c08201905061139160008301896111f9565b81810360208301526113a3818861124e565b90506113b2604083018761136d565b6113bf60608301866111f9565b6113cc60808301856111f9565b6113d960a08301846111f9565b979650505050505050565b60006020820190506113f960008301846111f9565b92915050565b600073ffffffffffffffffffffffffffffffffffffffff82169050919050565b600061142a826113ff565b9050919050565b61143a8161141f565b82525050565b60006020820190506114556000830184611431565b92915050565b7f6f6e6c792061646d696e2063616e206163636573732069740000000000000000600082015250565b6000611491601883611213565b915061149c8261145b565b602082019050919050565b600060208201905081810360008301526114c081611484565b9050919050565b7f656c656374696f6e206973206e6f742061637469766500000000000000000000600082015250565b60006114fd601683611213565b9150611508826114c7565b602082019050919050565b6000602082019050818103600083015261152c816114f0565b9050919050565b7f656c656374696f6e20656e64656420616c726561647900000000000000000000600082015250565b6000611569601683611213565b915061157482611533565b602082019050919050565b600060208201905081810360008301526115988161155c565b9050919050565b7f656c656374696f6e20646f6573206e6f74206578697374730000000000000000600082015250565b60006115d5601883611213565b91506115e08261159f565b602082019050919050565b60006020820190508181036000830152611604816115c8565b9050919050565b7f4e487b7100000000000000000000000000000000000000000000000000000000600052601160045260246000fd5b600061164582610ff4565b91507fffffffffffffffffffffffffffffffffffffffffffffffffffffffffffffffff82036116775761167661160b565b5b600182019050919050565b7f4e487b7100000000000000000000000000000000000000000000000000000000600052602260045260246000fd5b600060028204905060018216806116c957607f821691505b6020821081036116dc576116db611682565b5b50919050565b60008190508160005260206000209050919050565b60006020601f8301049050919050565b600082821b905092915050565b6000600883026117447fffffffffffffffffffffffffffffffffffffffffffffffffffffffffffffffff82611707565b61174e8683611707565b95508019841693508086168417925050509392505050565b6000819050919050565b600061178b61178661178184610ff4565b611766565b610ff4565b9050919050565b6000819050919050565b6117a583611770565b6117b96117b182611792565b848454611714565b825550505050565b600090565b6117ce6117c1565b6117d981848461179c565b505050565b5b818110156117fd576117f26000826117c6565b6001810190506117df565b5050565b601f82111561184257611813816116e2565b61181c846116f7565b8101602085101561182b578190505b61183f611837856116f7565b8301826117de565b50505b505050565b600082821c905092915050565b600061186560001984600802611847565b1980831691505092915050565b600061187e8383611854565b9150826002028217905092915050565b61189782611208565b67ffffffffffffffff8111156118b0576118af611045565b5b6118ba82546116b1565b6118c5828285611801565b600060209050601f8311600181146118f857600084156118e6578287015190505b6118f08582611872565b865550611958565b601f198416611906866116e2565b60005b8281101561192e57848901518255600182019150602085019450602081019050611909565b8683101561194b5784890151611947601f891682611854565b8355505b6001600288020188555050505b505050505050565b6000602082019050818103600083015261197a818461124e565b905092915050565b600061198d82610ff4565b915061199883610ff4565b92508282019050808211156119b0576119af61160b565b5b92915050565b600081905092915050565b600081546119ce816116b1565b6119d881866119b6565b945060018216600081146119f35760018114611a0857611a3b565b60ff1983168652811515820286019350611a3b565b611a11856116e2565b60005b83811015611a3357815481890152600182019150602081019050611a14565b838801955050505b50505092915050565b6000611a5082846119c1565b915081905092915050565b7f656c656374696f6e20697320616c726561647920656e64656400000000000000600082015250565b6000611a91601983611213565b9150611a9c82611a5b565b602082019050919050565b60006020820190508181036000830152611ac081611a84565b9050919050565b60008154611ad4816116b1565b611ade8186611213565b94506001821660008114611af95760018114611b0f57611b42565b60ff198316865281151560200286019350611b42565b611b18856116e2565b60005b83811015611b3a57815481890152600182019150602081019050611b1b565b808801955050505b50505092915050565b6000608082019050611b6060008301876111f9565b611b6d60208301866111f9565b8181036040830152611b7f8185611ac7565b9050611b8e60608301846111f9565b95945050505050565b7f63616e20766f7465206f6e6c79206f6e63650000000000000000000000000000600082015250565b6000611bcd601283611213565b9150611bd882611b97565b602082019050919050565b60006020820190508181036000830152611bfc81611bc0565b9050919050565b7f696e76616c69642063616e646964617465206964000000000000000000000000600082015250565b6000611c39601483611213565b9150611c4482611c03565b602082019050919050565b60006020820190508181036000830152611c6881611c2c565b905091905056fea26469706673582212204aa08cbcb2678b3f8a8a2d8729d5c56501fb3ad28937f06e24e75b839ec6f2af64736f6c63430008140033",
  "linkReferences": {},
  "deployedLinkReferences": {}
}