{
  "_format": "hh-sol-artifact-1",
  "contractName": "Voting",
  "sourceName": "contracts/Voting.sol",
  "abi": [
    {
      "inputs": [],
      "stateMutability": "nonpayable",
      "type": "constructor"
    },
    {
      "anonymous": false,
      "inputs": [
        {
          "indexed": true,
          "internalType": "uint256",
          "name": "eid",
          "type": "uint256"
        },
        {
          "indexed": true,
          "internalType": "uint256",
          "name": "cid",
          "type": "uint256"
        },
        {
          "indexed": false,
          "internalType": "string",
          "name": "name",
          "type": "string"
        }
      ],
      "name": "candidateAdded",
      "type": "event"
    },
    {
      "anonymous": false,
      "inputs": [
        {
          "indexed": true,
          "internalType": "uint256",
          "name": "eid",
          "type": "uint256"
        },
        {
          "indexed": true,
          "internalType": "string",
          "name": "name",
          "type": "string"
        },
        {
          "indexed": false,
          "internalType": "uint256",
          "name": "endTime",
          "type": "uint256"
        }
      ],
      "name": "electionCreated",
      "type": "event"
    },
    {
      "anonymous": false,
      "inputs": [
        {
          "indexed": false,
          "internalType": "uint256",
          "name": "eid",
          "type": "uint256"
        },
        {
          "indexed": false,
          "internalType": "uint256",
          "name": "winner_id",
          "type": "uint256"
        },
        {
          "indexed": false,
          "internalType": "string",
          "name": "winner_name",
          "type": "string"
        },
        {
          "indexed": false,
          "internalType": "uint256",
          "name": "voteCount",
          "type": "uint256"
        }
      ],
      "name": "electionEnded",
      "type": "event"
    },
    {
      "anonymous": false,
      "inputs": [
        {
          "indexed": true,
          "internalType": "uint256",
          "name": "eid",
          "type": "uint256"
        },
        {
          "indexed": true,
          "internalType": "uint256",
          "name": "cid",
          "type": "uint256"
        }
      ],
      "name": "votecast",
      "type": "event"
    },
    {
      "inputs": [
        {
          "internalType": "uint256",
          "name": "eid",
          "type": "uint256"
        },
        {
          "internalType": "string",
          "name": "name",
          "type": "string"
        }
      ],
      "name": "addCandidate",
      "outputs": [],
      "stateMutability": "nonpayable",
      "type": "function"
    },
    {
      "inputs": [],
      "name": "admin",
      "outputs": [
        {
          "internalType": "address",
          "name": "",
          "type": "address"
        }
      ],
      "stateMutability": "view",
      "type": "function"
    },
    {
      "inputs": [
        {
          "internalType": "string",
          "name": "name",
          "type": "string"
        },
        {
          "internalType": "uint256",
          "name": "duration",
          "type": "uint256"
        }
      ],
      "name": "createElection",
      "outputs": [],
      "stateMutability": "nonpayable",
      "type": "function"
    },
    {
      "inputs": [],
      "name": "electionCount",
      "outputs": [
        {
          "internalType": "uint256",
          "name": "",
          "type": "uint256"
        }
      ],
      "stateMutability": "view",
      "type": "function"
    },
    {
      "inputs": [
        {
          "internalType": "uint256",
          "name": "",
          "type": "uint256"
        }
      ],
      "name": "elections",
      "outputs": [
        {
          "internalType": "uint256",
          "name": "id",
          "type": "uint256"
        },
        {
          "internalType": "string",
          "name": "name",
          "type": "string"
        },
        {
          "internalType": "bool",
          "name": "isActive",
          "type": "bool"
        },
        {
          "internalType": "uint256",
          "name": "endtime",
          "type": "uint256"
        },
        {
          "internalType": "uint256",
          "name": "candCount",
          "type": "uint256"
        },
        {
          "internalType": "uint256",
          "name": "totalVotes",
          "type": "uint256"
        }
      ],
      "stateMutability": "view",
      "type": "function"
    },
    {
      "inputs": [
        {
          "internalType": "uint256",
          "name": "eid",
          "type": "uint256"
        }
      ],
      "name": "endElection",
      "outputs": [],
      "stateMutability": "nonpayable",
      "type": "function"
    },
    {
      "inputs": [],
      "name": "getAllElections",
      "outputs": [
        {
          "internalType": "uint256[]",
          "name": "",
          "type": "uint256[]"
        },
        {
          "internalType": "string[]",
          "name": "",
          "type": "string[]"
        },
        {
          "internalType": "uint256",
          "name": "",
          "type": "uint256"
        },
        {
          "internalType": "uint256[]",
          "name": "",
          "type": "uint256[]"
        },
        {
          "internalType": "bool[]",
          "name": "",
          "type": "bool[]"
        }
      ],
      "stateMutability": "view",
      "type": "function"
    },
    {
      "inputs": [
        {
          "internalType": "uint256",
          "name": "eid",
          "type": "uint256"
        },
        {
          "internalType": "uint256",
          "name": "cid",
          "type": "uint256"
        }
      ],
      "name": "getCandidate",
      "outputs": [
        {
          "internalType": "uint256",
          "name": "",
          "type": "uint256"
        },
        {
          "internalType": "string",
          "name": "",
          "type": "string"
        },
        {
          "internalType": "uint256",
          "name": "",
          "type": "uint256"
        }
      ],
      "stateMutability": "view",
      "type": "function"
    },
    {
      "inputs": [
        {
          "internalType": "uint256",
          "name": "eid",
          "type": "uint256"
        }
      ],
      "name": "getWinner",
      "outputs": [
        {
          "internalType": "uint256",
          "name": "",
          "type": "uint256"
        },
        {
          "internalType": "string",
          "name": "",
          "type": "string"
        },
        {
          "internalType": "uint256",
          "name": "",
          "type": "uint256"
        }
      ],
      "stateMutability": "view",
      "type": "function"
    },
    {
      "inputs": [
        {
          "internalType": "uint256",
          "name": "eid",
          "type": "uint256"
        },
        {
          "internalType": "uint256",
          "name": "cid",
          "type": "uint256"
        }
      ],
      "name": "vote",
      "outputs": [],
      "stateMutability": "nonpayable",
      "type": "function"
    }
  ],
  "bytecode": "0x608060405234801561001057600080fd5b5033600160006101000a81548173ffffffffffffffffffffffffffffffffffffffff021916908373ffffffffffffffffffffffffffffffffffffffff1602179055506122cf806100616000396000f3fe608060405234801561001057600080fd5b506004361061009e5760003560e01c80637fd5f268116100665780637fd5f26814610174578063997d2830146101965780639c98bcbb146101b4578063b384abef146101d0578063f851a440146101ec5761009e565b80631750a3d0146100a35780634129b2c9146100bf578063432cf2ce146100f15780634bd464481461010d5780635e6fef011461013f575b600080fd5b6100bd60048036038101906100b89190611474565b61020a565b005b6100d960048036038101906100d491906114d0565b610481565b6040516100e89392919061158b565b60405180910390f35b61010b600480360381019061010691906115c9565b6105d1565b005b61012760048036038101906101229190611625565b610746565b6040516101369392919061158b565b60405180910390f35b610159600480360381019061015491906114d0565b6109ef565b60405161016b96959493929190611680565b60405180910390f35b61017c610ac0565b60405161018d959493929190611970565b60405180910390f35b61019e610d97565b6040516101ab91906119df565b60405180910390f35b6101ce60048036038101906101c991906114d0565b610d9d565b005b6101ea60048036038101906101e59190611625565b610fd2565b005b6101f46112be565b6040516102019190611a3b565b60405180910390f35b600160009054906101000a900473ffffffffffffffffffffffffffffffffffffffff1673ffffffffffffffffffffffffffffffffffffffff163373ffffffffffffffffffffffffffffffffffffffff161461029a576040517f08c379a000000000000000000000000000000000000000000000000000000000815260040161029190611aa2565b60405180910390fd5b81600115156002600083815260200190815260200160002060020160009054906101000a900460ff16151514610305576040517f08c379a00000000000000000000000000000000000000000000000000000000081526004016102fc90611b0e565b60405180910390fd5b426002600083815260200190815260200160002060030154101561035e576040517f08c379a000000000000000000000000000000000000000000000000000000000815260040161035590611b7a565b60405180910390fd5b8260008111801561037157508060005410155b6103b0576040517f08c379a00000000000000000000000000000000000000000000000000000000081526004016103a790611be6565b60405180910390fd5b6000600260008681526020019081526020016000209050600081600501600081546103da90611c35565b9190508190559050604051806060016040528082815260200186815260200160008152508260040160008381526020019081526020016000206000820151816000015560208201518160010190816104329190611e89565b506040820151816002015590505080867f7dfb58188eccf10f33924875fc8c15f7b3362b898b4c53f4977b87901461f5ea876040516104719190611f5b565b60405180910390a3505050505050565b60006060600080600260008681526020019081526020016000209050600080600090506000600190505b8360050154811161050857836004016000828152602001908152602001600020600201548210156104f5578360040160008281526020019081526020016000206002015491508092505b808061050090611c35565b9150506104ab565b50816002600089815260200190815260200160002060040160008481526020019081526020016000206001018281805461054190611cac565b80601f016020809104026020016040519081016040528092919081815260200182805461056d90611cac565b80156105ba5780601f1061058f576101008083540402835291602001916105ba565b820191906000526020600020905b81548152906001019060200180831161059d57829003601f168201915b505050505091509550955095505050509193909250565b600160009054906101000a900473ffffffffffffffffffffffffffffffffffffffff1673ffffffffffffffffffffffffffffffffffffffff163373ffffffffffffffffffffffffffffffffffffffff1614610661576040517f08c379a000000000000000000000000000000000000000000000000000000000815260040161065890611aa2565b60405180910390fd5b60008081548092919061067390611c35565b91905055506000600260008054815260200190815260200160002090506000548160000181905550828160010190816106ac9190611e89565b5060018160020160006101000a81548160ff02191690831515021790555081426106d69190611f7d565b816003018190555060008160070181905550806001016040516106f9919061203f565b604051809103902081600001547f812cf74ad34389ce108cafb2c53a5ec0bc15d846f6f4af080f5a8e01d978a07e836003015460405161073991906119df565b60405180910390a3505050565b6000606060008460008111801561075f57508060005410155b61079e576040517f08c379a000000000000000000000000000000000000000000000000000000000815260040161079590611be6565b60405180910390fd5b600160009054906101000a900473ffffffffffffffffffffffffffffffffffffffff1673ffffffffffffffffffffffffffffffffffffffff163373ffffffffffffffffffffffffffffffffffffffff161461082e576040517f08c379a000000000000000000000000000000000000000000000000000000000815260040161082590611aa2565b60405180910390fd5b85600115156002600083815260200190815260200160002060020160009054906101000a900460ff16151514610899576040517f08c379a000000000000000000000000000000000000000000000000000000000815260040161089090611b0e565b60405180910390fd5b42600260008381526020019081526020016000206003015410156108f2576040517f08c379a00000000000000000000000000000000000000000000000000000000081526004016108e990611b7a565b60405180910390fd5b600060026000898152602001908152602001600020905060008160040160008981526020019081526020016000206040518060600160405290816000820154815260200160018201805461094590611cac565b80601f016020809104026020016040519081016040528092919081815260200182805461097190611cac565b80156109be5780601f10610993576101008083540402835291602001916109be565b820191906000526020600020905b8154815290600101906020018083116109a157829003601f168201915b5050505050815260200160028201548152505090508781602001518260400151965096509650505050509250925092565b6002602052806000526040600020600091509050806000015490806001018054610a1890611cac565b80601f0160208091040260200160405190810160405280929190818152602001828054610a4490611cac565b8015610a915780601f10610a6657610100808354040283529160200191610a91565b820191906000526020600020905b815481529060010190602001808311610a7457829003601f168201915b5050505050908060020160009054906101000a900460ff16908060030154908060050154908060070154905086565b60608060006060806000805467ffffffffffffffff811115610ae557610ae4611349565b5b604051908082528060200260200182016040528015610b135781602001602082028036833780820191505090505b5090506000805467ffffffffffffffff811115610b3357610b32611349565b5b604051908082528060200260200182016040528015610b6657816020015b6060815260200190600190039081610b515790505b5090506000805467ffffffffffffffff811115610b8657610b85611349565b5b604051908082528060200260200182016040528015610bb45781602001602082028036833780820191505090505b5090506000805467ffffffffffffffff811115610bd457610bd3611349565b5b604051908082528060200260200182016040528015610c025781602001602082028036833780820191505090505b509050600080600090505b600054811015610d7b57600060026000600184610c2a9190611f7d565b815260200190815260200160002090508060000154878381518110610c5257610c51612056565b5b602002602001018181525050806001018054610c6d90611cac565b80601f0160208091040260200160405190810160405280929190818152602001828054610c9990611cac565b8015610ce65780601f10610cbb57610100808354040283529160200191610ce6565b820191906000526020600020905b815481529060010190602001808311610cc957829003601f168201915b5050505050868381518110610cfe57610cfd612056565b5b60200260200101819052508060030154858381518110610d2157610d20612056565b5b6020026020010181815250508060020160009054906101000a900460ff16848381518110610d5257610d51612056565b5b602002602001019015159081151581525050429250508080610d7390611c35565b915050610c0d565b5084848285859950995099509950995050505050509091929394565b60005481565b600160009054906101000a900473ffffffffffffffffffffffffffffffffffffffff1673ffffffffffffffffffffffffffffffffffffffff163373ffffffffffffffffffffffffffffffffffffffff1614610e2d576040517f08c379a0000000000000000000000000000000000000000000000000000000008152600401610e2490611aa2565b60405180910390fd5b80600081118015610e4057508060005410155b610e7f576040517f08c379a0000000000000000000000000000000000000000000000000000000008152600401610e7690611be6565b60405180910390fd5b6000600260008481526020019081526020016000209050600115158160020160009054906101000a900460ff16151514610eee576040517f08c379a0000000000000000000000000000000000000000000000000000000008152600401610ee5906120d1565b60405180910390fd5b60008160020160006101000a81548160ff021916908315150217905550600080600090506000600190505b83600501548111610f765783600401600082815260200190815260200160002060020154821015610f63578360040160008281526020019081526020016000206002015491508092505b8080610f6e90611c35565b915050610f19565b507fe1ccaef6aad2fa0bbbf35b94b26f5a255435fd444716406c43cd235994772b3f858385600401600086815260200190815260200160002060010184604051610fc39493929190612175565b60405180910390a15050505050565b81600115156002600083815260200190815260200160002060020160009054906101000a900460ff1615151461103d576040517f08c379a000000000000000000000000000000000000000000000000000000000815260040161103490611b0e565b60405180910390fd5b4260026000838152602001908152602001600020600301541015611096576040517f08c379a000000000000000000000000000000000000000000000000000000000815260040161108d90611b7a565b60405180910390fd5b826000811180156110a957508060005410155b6110e8576040517f08c379a00000000000000000000000000000000000000000000000000000000081526004016110df90611be6565b60405180910390fd5b6000600260008681526020019081526020016000209050600015158160060160003373ffffffffffffffffffffffffffffffffffffffff1673ffffffffffffffffffffffffffffffffffffffff16815260200190815260200160002060009054906101000a900460ff16151514611194576040517f08c379a000000000000000000000000000000000000000000000000000000000815260040161118b9061220d565b60405180910390fd5b838160050154101580156111a85750600084115b6111e7576040517f08c379a00000000000000000000000000000000000000000000000000000000081526004016111de90612279565b60405180910390fd5b8060070160008154809291906111fc90611c35565b919050555060018160060160003373ffffffffffffffffffffffffffffffffffffffff1673ffffffffffffffffffffffffffffffffffffffff16815260200190815260200160002060006101000a81548160ff021916908315150217905550806004016000858152602001908152602001600020600201600081548092919061128490611c35565b919050555083857f5278d3ef2e4f3453f9119a5d3c0f6cea5b3e3ab271f692dc6766b054bf0e597c60405160405180910390a35050505050565b600160009054906101000a900473ffffffffffffffffffffffffffffffffffffffff1681565b6000604051905090565b600080fd5b600080fd5b6000819050919050565b61130b816112f8565b811461131657600080fd5b50565b60008135905061132881611302565b92915050565b600080fd5b600080fd5b6000601f19601f8301169050919050565b7f4e487b7100000000000000000000000000000000000000000000000000000000600052604160045260246000fd5b61138182611338565b810181811067ffffffffffffffff821117156113a05761139f611349565b5b80604052505050565b60006113b36112e4565b90506113bf8282611378565b919050565b600067ffffffffffffffff8211156113df576113de611349565b5b6113e882611338565b9050602081019050919050565b82818337600083830152505050565b6000611417611412846113c4565b6113a9565b90508281526020810184848401111561143357611432611333565b5b61143e8482856113f5565b509392505050565b600082601f83011261145b5761145a61132e565b5b813561146b848260208601611404565b91505092915050565b6000806040838503121561148b5761148a6112ee565b5b600061149985828601611319565b925050602083013567ffffffffffffffff8111156114ba576114b96112f3565b5b6114c685828601611446565b9150509250929050565b6000602082840312156114e6576114e56112ee565b5b60006114f484828501611319565b91505092915050565b611506816112f8565b82525050565b600081519050919050565b600082825260208201905092915050565b60005b8381101561154657808201518184015260208101905061152b565b60008484015250505050565b600061155d8261150c565b6115678185611517565b9350611577818560208601611528565b61158081611338565b840191505092915050565b60006060820190506115a060008301866114fd565b81810360208301526115b28185611552565b90506115c160408301846114fd565b949350505050565b600080604083850312156115e0576115df6112ee565b5b600083013567ffffffffffffffff8111156115fe576115fd6112f3565b5b61160a85828601611446565b925050602061161b85828601611319565b9150509250929050565b6000806040838503121561163c5761163b6112ee565b5b600061164a85828601611319565b925050602061165b85828601611319565b9150509250929050565b60008115159050919050565b61167a81611665565b82525050565b600060c08201905061169560008301896114fd565b81810360208301526116a78188611552565b90506116b66040830187611671565b6116c360608301866114fd565b6116d060808301856114fd565b6116dd60a08301846114fd565b979650505050505050565b600081519050919050565b600082825260208201905092915050565b6000819050602082019050919050565b61171d816112f8565b82525050565b600061172f8383611714565b60208301905092915050565b6000602082019050919050565b6000611753826116e8565b61175d81856116f3565b935061176883611704565b8060005b838110156117995781516117808882611723565b975061178b8361173b565b92505060018101905061176c565b5085935050505092915050565b600081519050919050565b600082825260208201905092915050565b6000819050602082019050919050565b600082825260208201905092915050565b60006117ee8261150c565b6117f881856117d2565b9350611808818560208601611528565b61181181611338565b840191505092915050565b600061182883836117e3565b905092915050565b6000602082019050919050565b6000611848826117a6565b61185281856117b1565b935083602082028501611864856117c2565b8060005b858110156118a05784840389528151611881858261181c565b945061188c83611830565b925060208a01995050600181019050611868565b50829750879550505050505092915050565b600081519050919050565b600082825260208201905092915050565b6000819050602082019050919050565b6118e781611665565b82525050565b60006118f983836118de565b60208301905092915050565b6000602082019050919050565b600061191d826118b2565b61192781856118bd565b9350611932836118ce565b8060005b8381101561196357815161194a88826118ed565b975061195583611905565b925050600181019050611936565b5085935050505092915050565b600060a082019050818103600083015261198a8188611748565b9050818103602083015261199e818761183d565b90506119ad60408301866114fd565b81810360608301526119bf8185611748565b905081810360808301526119d38184611912565b90509695505050505050565b60006020820190506119f460008301846114fd565b92915050565b600073ffffffffffffffffffffffffffffffffffffffff82169050919050565b6000611a25826119fa565b9050919050565b611a3581611a1a565b82525050565b6000602082019050611a506000830184611a2c565b92915050565b7f6f6e6c792061646d696e2063616e206163636573732069740000000000000000600082015250565b6000611a8c601883611517565b9150611a9782611a56565b602082019050919050565b60006020820190508181036000830152611abb81611a7f565b9050919050565b7f656c656374696f6e206973206e6f742061637469766500000000000000000000600082015250565b6000611af8601683611517565b9150611b0382611ac2565b602082019050919050565b60006020820190508181036000830152611b2781611aeb565b9050919050565b7f656c656374696f6e20656e64656420616c726561647900000000000000000000600082015250565b6000611b64601683611517565b9150611b6f82611b2e565b602082019050919050565b60006020820190508181036000830152611b9381611b57565b9050919050565b7f656c656374696f6e20646f6573206e6f74206578697374730000000000000000600082015250565b6000611bd0601883611517565b9150611bdb82611b9a565b602082019050919050565b60006020820190508181036000830152611bff81611bc3565b9050919050565b7f4e487b7100000000000000000000000000000000000000000000000000000000600052601160045260246000fd5b6000611c40826112f8565b91507fffffffffffffffffffffffffffffffffffffffffffffffffffffffffffffffff8203611c7257611c71611c06565b5b600182019050919050565b7f4e487b7100000000000000000000000000000000000000000000000000000000600052602260045260246000fd5b60006002820490506001821680611cc457607f821691505b602082108103611cd757611cd6611c7d565b5b50919050565b60008190508160005260206000209050919050565b60006020601f8301049050919050565b600082821b905092915050565b600060088302611d3f7fffffffffffffffffffffffffffffffffffffffffffffffffffffffffffffffff82611d02565b611d498683611d02565b95508019841693508086168417925050509392505050565b6000819050919050565b6000611d86611d81611d7c846112f8565b611d61565b6112f8565b9050919050565b6000819050919050565b611da083611d6b565b611db4611dac82611d8d565b848454611d0f565b825550505050565b600090565b611dc9611dbc565b611dd4818484611d97565b505050565b5b81811015611df857611ded600082611dc1565b600181019050611dda565b5050565b601f821115611e3d57611e0e81611cdd565b611e1784611cf2565b81016020851015611e26578190505b611e3a611e3285611cf2565b830182611dd9565b50505b505050565b600082821c905092915050565b6000611e6060001984600802611e42565b1980831691505092915050565b6000611e798383611e4f565b9150826002028217905092915050565b611e928261150c565b67ffffffffffffffff811115611eab57611eaa611349565b5b611eb58254611cac565b611ec0828285611dfc565b600060209050601f831160018114611ef35760008415611ee1578287015190505b611eeb8582611e6d565b865550611f53565b601f198416611f0186611cdd565b60005b82811015611f2957848901518255600182019150602085019450602081019050611f04565b86831015611f465784890151611f42601f891682611e4f565b8355505b6001600288020188555050505b505050505050565b60006020820190508181036000830152611f758184611552565b905092915050565b6000611f88826112f8565b9150611f93836112f8565b9250828201905080821115611fab57611faa611c06565b5b92915050565b600081905092915050565b60008154611fc981611cac565b611fd38186611fb1565b94506001821660008114611fee576001811461200357612036565b60ff1983168652811515820286019350612036565b61200c85611cdd565b60005b8381101561202e5781548189015260018201915060208101905061200f565b838801955050505b50505092915050565b600061204b8284611fbc565b915081905092915050565b7f4e487b7100000000000000000000000000000000000000000000000000000000600052603260045260246000fd5b7f656c656374696f6e20697320616c726561647920656e64656400000000000000600082015250565b60006120bb601983611517565b91506120c682612085565b602082019050919050565b600060208201905081810360008301526120ea816120ae565b9050919050565b600081546120fe81611cac565b6121088186611517565b9450600182166000811461212357600181146121395761216c565b60ff19831686528115156020028601935061216c565b61214285611cdd565b60005b8381101561216457815481890152600182019150602081019050612145565b808801955050505b50505092915050565b600060808201905061218a60008301876114fd565b61219760208301866114fd565b81810360408301526121a981856120f1565b90506121b860608301846114fd565b95945050505050565b7f63616e20766f7465206f6e6c79206f6e63650000000000000000000000000000600082015250565b60006121f7601283611517565b9150612202826121c1565b602082019050919050565b60006020820190508181036000830152612226816121ea565b9050919050565b7f696e76616c69642063616e646964617465206964000000000000000000000000600082015250565b6000612263601483611517565b915061226e8261222d565b602082019050919050565b6000602082019050818103600083015261229281612256565b905091905056fea26469706673582212201636dfc7f604d2eaba6dafdf2ee1cc843b94d9e099f46a20876d6375d02914f464736f6c63430008140033",
  "linkReferences": {},
  "deployedLinkReferences": {}
}