{
  "_format": "hh-sol-artifact-1",
  "contractName": "Voting",
  "sourceName": "contracts/Voting.sol",
  "abi": [
    {
      "inputs": [],
      "stateMutability": "nonpayable",
      "type": "constructor"
    },
    {
      "anonymous": false,
      "inputs": [
        {
          "indexed": true,
          "internalType": "uint256",
          "name": "eid",
          "type": "uint256"
        },
        {
          "indexed": true,
          "internalType": "uint256",
          "name": "cid",
          "type": "uint256"
        },
        {
          "indexed": false,
          "internalType": "string",
          "name": "name",
          "type": "string"
        }
      ],
      "name": "candidateAdded",
      "type": "event"
    },
    {
      "anonymous": false,
      "inputs": [
        {
          "indexed": true,
          "internalType": "uint256",
          "name": "eid",
          "type": "uint256"
        },
        {
          "indexed": true,
          "internalType": "string",
          "name": "name",
          "type": "string"
        },
        {
          "indexed": false,
          "internalType": "uint256",
          "name": "endTime",
          "type": "uint256"
        }
      ],
      "name": "electionCreated",
      "type": "event"
    },
    {
      "anonymous": false,
      "inputs": [
        {
          "indexed": false,
          "internalType": "uint256",
          "name": "eid",
          "type": "uint256"
        },
        {
          "indexed": false,
          "internalType": "uint256",
          "name": "winner_id",
          "type": "uint256"
        },
        {
          "indexed": false,
          "internalType": "string",
          "name": "winner_name",
          "type": "string"
        },
        {
          "indexed": false,
          "internalType": "uint256",
          "name": "voteCount",
          "type": "uint256"
        }
      ],
      "name": "electionEnded",
      "type": "event"
    },
    {
      "anonymous": false,
      "inputs": [
        {
          "indexed": true,
          "internalType": "uint256",
          "name": "eid",
          "type": "uint256"
        },
        {
          "indexed": true,
          "internalType": "uint256",
          "name": "cid",
          "type": "uint256"
        }
      ],
      "name": "votecast",
      "type": "event"
    },
    {
      "inputs": [
        {
          "internalType": "uint256",
          "name": "eid",
          "type": "uint256"
        },
        {
          "internalType": "string",
          "name": "name",
          "type": "string"
        }
      ],
      "name": "addCandidate",
      "outputs": [],
      "stateMutability": "nonpayable",
      "type": "function"
    },
    {
      "inputs": [],
      "name": "admin",
      "outputs": [
        {
          "internalType": "address",
          "name": "",
          "type": "address"
        }
      ],
      "stateMutability": "view",
      "type": "function"
    },
    {
      "inputs": [
        {
          "internalType": "string",
          "name": "name",
          "type": "string"
        },
        {
          "internalType": "uint256",
          "name": "duration",
          "type": "uint256"
        }
      ],
      "name": "createElection",
      "outputs": [],
      "stateMutability": "nonpayable",
      "type": "function"
    },
    {
      "inputs": [
        {
          "internalType": "uint256",
          "name": "eid",
          "type": "uint256"
        }
      ],
      "name": "deleteElection",
      "outputs": [],
      "stateMutability": "nonpayable",
      "type": "function"
    },
    {
      "inputs": [],
      "name": "electionCount",
      "outputs": [
        {
          "internalType": "uint256",
          "name": "",
          "type": "uint256"
        }
      ],
      "stateMutability": "view",
      "type": "function"
    },
    {
      "inputs": [
        {
          "internalType": "uint256",
          "name": "",
          "type": "uint256"
        }
      ],
      "name": "elections",
      "outputs": [
        {
          "internalType": "uint256",
          "name": "id",
          "type": "uint256"
        },
        {
          "internalType": "string",
          "name": "name",
          "type": "string"
        },
        {
          "internalType": "bool",
          "name": "isActive",
          "type": "bool"
        },
        {
          "internalType": "uint256",
          "name": "endtime",
          "type": "uint256"
        },
        {
          "internalType": "uint256",
          "name": "candCount",
          "type": "uint256"
        },
        {
          "internalType": "uint256",
          "name": "totalVotes",
          "type": "uint256"
        }
      ],
      "stateMutability": "view",
      "type": "function"
    },
    {
      "inputs": [
        {
          "internalType": "uint256",
          "name": "eid",
          "type": "uint256"
        }
      ],
      "name": "endElection",
      "outputs": [],
      "stateMutability": "nonpayable",
      "type": "function"
    },
    {
      "inputs": [],
      "name": "getAllElections",
      "outputs": [
        {
          "internalType": "uint256[]",
          "name": "",
          "type": "uint256[]"
        },
        {
          "internalType": "string[]",
          "name": "",
          "type": "string[]"
        },
        {
          "internalType": "uint256",
          "name": "",
          "type": "uint256"
        },
        {
          "internalType": "uint256[]",
          "name": "",
          "type": "uint256[]"
        },
        {
          "internalType": "bool[]",
          "name": "",
          "type": "bool[]"
        }
      ],
      "stateMutability": "view",
      "type": "function"
    },
    {
      "inputs": [
        {
          "internalType": "uint256",
          "name": "eid",
          "type": "uint256"
        },
        {
          "internalType": "uint256",
          "name": "cid",
          "type": "uint256"
        }
      ],
      "name": "getCandidate",
      "outputs": [
        {
          "internalType": "uint256",
          "name": "",
          "type": "uint256"
        },
        {
          "internalType": "string",
          "name": "",
          "type": "string"
        },
        {
          "internalType": "uint256",
          "name": "",
          "type": "uint256"
        }
      ],
      "stateMutability": "view",
      "type": "function"
    },
    {
      "inputs": [
        {
          "internalType": "uint256",
          "name": "eid",
          "type": "uint256"
        }
      ],
      "name": "getWinner",
      "outputs": [
        {
          "internalType": "uint256",
          "name": "",
          "type": "uint256"
        },
        {
          "internalType": "string",
          "name": "",
          "type": "string"
        },
        {
          "internalType": "uint256",
          "name": "",
          "type": "uint256"
        }
      ],
      "stateMutability": "view",
      "type": "function"
    },
    {
      "inputs": [
        {
          "internalType": "uint256",
          "name": "eid",
          "type": "uint256"
        },
        {
          "internalType": "uint256",
          "name": "cid",
          "type": "uint256"
        }
      ],
      "name": "vote",
      "outputs": [],
      "stateMutability": "nonpayable",
      "type": "function"
    }
  ],
  "bytecode": "0x608060405234801561001057600080fd5b5033600160006101000a81548173ffffffffffffffffffffffffffffffffffffffff021916908373ffffffffffffffffffffffffffffffffffffffff160217905550612892806100616000396000f3fe608060405234801561001057600080fd5b50600436106100a95760003560e01c8063740c47d411610071578063740c47d41461017f5780637fd5f2681461019b578063997d2830146101bd5780639c98bcbb146101db578063b384abef146101f7578063f851a44014610213576100a9565b80631750a3d0146100ae5780634129b2c9146100ca578063432cf2ce146100fc5780634bd46448146101185780635e6fef011461014a575b600080fd5b6100c860048036038101906100c3919061188f565b610231565b005b6100e460048036038101906100df91906118eb565b6104a8565b6040516100f3939291906119a6565b60405180910390f35b610116600480360381019061011191906119e4565b6105f8565b005b610132600480360381019061012d9190611a40565b61076d565b604051610141939291906119a6565b60405180910390f35b610164600480360381019061015f91906118eb565b610a16565b60405161017696959493929190611a9b565b60405180910390f35b610199600480360381019061019491906118eb565b610ae7565b005b6101a3610e7e565b6040516101b4959493929190611d8b565b60405180910390f35b6101c5611155565b6040516101d29190611dfa565b60405180910390f35b6101f560048036038101906101f091906118eb565b61115b565b005b610211600480360381019061020c9190611a40565b611390565b005b61021b61167c565b6040516102289190611e56565b60405180910390f35b600160009054906101000a900473ffffffffffffffffffffffffffffffffffffffff1673ffffffffffffffffffffffffffffffffffffffff163373ffffffffffffffffffffffffffffffffffffffff16146102c1576040517f08c379a00000000000000000000000000000000000000000000000000000000081526004016102b890611ebd565b60405180910390fd5b81600115156002600083815260200190815260200160002060020160009054906101000a900460ff1615151461032c576040517f08c379a000000000000000000000000000000000000000000000000000000000815260040161032390611f29565b60405180910390fd5b4260026000838152602001908152602001600020600301541015610385576040517f08c379a000000000000000000000000000000000000000000000000000000000815260040161037c90611f95565b60405180910390fd5b8260008111801561039857508060005410155b6103d7576040517f08c379a00000000000000000000000000000000000000000000000000000000081526004016103ce90612001565b60405180910390fd5b60006002600086815260200190815260200160002090506000816005016000815461040190612050565b91905081905590506040518060600160405280828152602001868152602001600081525082600401600083815260200190815260200160002060008201518160000155602082015181600101908161045991906122a4565b506040820151816002015590505080867f7dfb58188eccf10f33924875fc8c15f7b3362b898b4c53f4977b87901461f5ea876040516104989190612376565b60405180910390a3505050505050565b60006060600080600260008681526020019081526020016000209050600080600090506000600190505b8360050154811161052f578360040160008281526020019081526020016000206002015482101561051c578360040160008281526020019081526020016000206002015491508092505b808061052790612050565b9150506104d2565b508160026000898152602001908152602001600020600401600084815260200190815260200160002060010182818054610568906120c7565b80601f0160208091040260200160405190810160405280929190818152602001828054610594906120c7565b80156105e15780601f106105b6576101008083540402835291602001916105e1565b820191906000526020600020905b8154815290600101906020018083116105c457829003601f168201915b505050505091509550955095505050509193909250565b600160009054906101000a900473ffffffffffffffffffffffffffffffffffffffff1673ffffffffffffffffffffffffffffffffffffffff163373ffffffffffffffffffffffffffffffffffffffff1614610688576040517f08c379a000000000000000000000000000000000000000000000000000000000815260040161067f90611ebd565b60405180910390fd5b60008081548092919061069a90612050565b91905055506000600260008054815260200190815260200160002090506000548160000181905550828160010190816106d391906122a4565b5060018160020160006101000a81548160ff02191690831515021790555081426106fd9190612398565b81600301819055506000816007018190555080600101604051610720919061245a565b604051809103902081600001547f812cf74ad34389ce108cafb2c53a5ec0bc15d846f6f4af080f5a8e01d978a07e83600301546040516107609190611dfa565b60405180910390a3505050565b6000606060008460008111801561078657508060005410155b6107c5576040517f08c379a00000000000000000000000000000000000000000000000000000000081526004016107bc90612001565b60405180910390fd5b600160009054906101000a900473ffffffffffffffffffffffffffffffffffffffff1673ffffffffffffffffffffffffffffffffffffffff163373ffffffffffffffffffffffffffffffffffffffff1614610855576040517f08c379a000000000000000000000000000000000000000000000000000000000815260040161084c90611ebd565b60405180910390fd5b85600115156002600083815260200190815260200160002060020160009054906101000a900460ff161515146108c0576040517f08c379a00000000000000000000000000000000000000000000000000000000081526004016108b790611f29565b60405180910390fd5b4260026000838152602001908152602001600020600301541015610919576040517f08c379a000000000000000000000000000000000000000000000000000000000815260040161091090611f95565b60405180910390fd5b600060026000898152602001908152602001600020905060008160040160008981526020019081526020016000206040518060600160405290816000820154815260200160018201805461096c906120c7565b80601f0160208091040260200160405190810160405280929190818152602001828054610998906120c7565b80156109e55780601f106109ba576101008083540402835291602001916109e5565b820191906000526020600020905b8154815290600101906020018083116109c857829003601f168201915b5050505050815260200160028201548152505090508781602001518260400151965096509650505050509250925092565b6002602052806000526040600020600091509050806000015490806001018054610a3f906120c7565b80601f0160208091040260200160405190810160405280929190818152602001828054610a6b906120c7565b8015610ab85780601f10610a8d57610100808354040283529160200191610ab8565b820191906000526020600020905b815481529060010190602001808311610a9b57829003601f168201915b5050505050908060020160009054906101000a900460ff16908060030154908060050154908060070154905086565b600160009054906101000a900473ffffffffffffffffffffffffffffffffffffffff1673ffffffffffffffffffffffffffffffffffffffff163373ffffffffffffffffffffffffffffffffffffffff1614610b77576040517f08c379a0000000000000000000000000000000000000000000000000000000008152600401610b6e90611ebd565b60405180910390fd5b80600081118015610b8a57508060005410155b610bc9576040517f08c379a0000000000000000000000000000000000000000000000000000000008152600401610bc090612001565b60405180910390fd5b600015156002600084815260200190815260200160002060020160009054906101000a900460ff16151514610c33576040517f08c379a0000000000000000000000000000000000000000000000000000000008152600401610c2a906124bd565b60405180910390fd5b60008290505b600054811015610e075760026000600183610c549190612398565b815260200190815260200160002060000154600260008381526020019081526020016000206000018190555060026000600183610c919190612398565b8152602001908152602001600020600101600260008381526020019081526020016000206001019081610cc49190612508565b5060026000600183610cd69190612398565b815260200190815260200160002060020160009054906101000a900460ff166002600083815260200190815260200160002060020160006101000a81548160ff02191690831515021790555060026000600183610d339190612398565b815260200190815260200160002060030154600260008381526020019081526020016000206003018190555060026000600183610d709190612398565b815260200190815260200160002060050154600260008381526020019081526020016000206005018190555060026000600183610dad9190612398565b81526020019081526020016000206007015460026000838152602001908152602001600020600701819055508060026000838152602001908152602001600020600001819055508080610dff90612050565b915050610c39565b506002600080548152602001908152602001600020600080820160009055600182016000610e3591906116a2565b6002820160006101000a81549060ff02191690556003820160009055600582016000905560078201600090555050600080815480929190610e75906125f0565b91905055505050565b60608060006060806000805467ffffffffffffffff811115610ea357610ea2611764565b5b604051908082528060200260200182016040528015610ed15781602001602082028036833780820191505090505b5090506000805467ffffffffffffffff811115610ef157610ef0611764565b5b604051908082528060200260200182016040528015610f2457816020015b6060815260200190600190039081610f0f5790505b5090506000805467ffffffffffffffff811115610f4457610f43611764565b5b604051908082528060200260200182016040528015610f725781602001602082028036833780820191505090505b5090506000805467ffffffffffffffff811115610f9257610f91611764565b5b604051908082528060200260200182016040528015610fc05781602001602082028036833780820191505090505b509050600080600090505b60005481101561113957600060026000600184610fe89190612398565b8152602001908152602001600020905080600001548783815181106110105761100f612619565b5b60200260200101818152505080600101805461102b906120c7565b80601f0160208091040260200160405190810160405280929190818152602001828054611057906120c7565b80156110a45780601f10611079576101008083540402835291602001916110a4565b820191906000526020600020905b81548152906001019060200180831161108757829003601f168201915b50505050508683815181106110bc576110bb612619565b5b602002602001018190525080600301548583815181106110df576110de612619565b5b6020026020010181815250508060020160009054906101000a900460ff168483815181106111105761110f612619565b5b60200260200101901515908115158152505042925050808061113190612050565b915050610fcb565b5084848285859950995099509950995050505050509091929394565b60005481565b600160009054906101000a900473ffffffffffffffffffffffffffffffffffffffff1673ffffffffffffffffffffffffffffffffffffffff163373ffffffffffffffffffffffffffffffffffffffff16146111eb576040517f08c379a00000000000000000000000000000000000000000000000000000000081526004016111e290611ebd565b60405180910390fd5b806000811180156111fe57508060005410155b61123d576040517f08c379a000000000000000000000000000000000000000000000000000000000815260040161123490612001565b60405180910390fd5b6000600260008481526020019081526020016000209050600115158160020160009054906101000a900460ff161515146112ac576040517f08c379a00000000000000000000000000000000000000000000000000000000081526004016112a390612694565b60405180910390fd5b60008160020160006101000a81548160ff021916908315150217905550600080600090506000600190505b836005015481116113345783600401600082815260200190815260200160002060020154821015611321578360040160008281526020019081526020016000206002015491508092505b808061132c90612050565b9150506112d7565b507fe1ccaef6aad2fa0bbbf35b94b26f5a255435fd444716406c43cd235994772b3f8583856004016000868152602001908152602001600020600101846040516113819493929190612738565b60405180910390a15050505050565b81600115156002600083815260200190815260200160002060020160009054906101000a900460ff161515146113fb576040517f08c379a00000000000000000000000000000000000000000000000000000000081526004016113f290611f29565b60405180910390fd5b4260026000838152602001908152602001600020600301541015611454576040517f08c379a000000000000000000000000000000000000000000000000000000000815260040161144b90611f95565b60405180910390fd5b8260008111801561146757508060005410155b6114a6576040517f08c379a000000000000000000000000000000000000000000000000000000000815260040161149d90612001565b60405180910390fd5b6000600260008681526020019081526020016000209050600015158160060160003373ffffffffffffffffffffffffffffffffffffffff1673ffffffffffffffffffffffffffffffffffffffff16815260200190815260200160002060009054906101000a900460ff16151514611552576040517f08c379a0000000000000000000000000000000000000000000000000000000008152600401611549906127d0565b60405180910390fd5b838160050154101580156115665750600084115b6115a5576040517f08c379a000000000000000000000000000000000000000000000000000000000815260040161159c9061283c565b60405180910390fd5b8060070160008154809291906115ba90612050565b919050555060018160060160003373ffffffffffffffffffffffffffffffffffffffff1673ffffffffffffffffffffffffffffffffffffffff16815260200190815260200160002060006101000a81548160ff021916908315150217905550806004016000858152602001908152602001600020600201600081548092919061164290612050565b919050555083857f5278d3ef2e4f3453f9119a5d3c0f6cea5b3e3ab271f692dc6766b054bf0e597c60405160405180910390a35050505050565b600160009054906101000a900473ffffffffffffffffffffffffffffffffffffffff1681565b5080546116ae906120c7565b6000825580601f106116c057506116df565b601f0160209004906000526020600020908101906116de91906116e2565b5b50565b5b808211156116fb5760008160009055506001016116e3565b5090565b6000604051905090565b600080fd5b600080fd5b6000819050919050565b61172681611713565b811461173157600080fd5b50565b6000813590506117438161171d565b92915050565b600080fd5b600080fd5b6000601f19601f8301169050919050565b7f4e487b7100000000000000000000000000000000000000000000000000000000600052604160045260246000fd5b61179c82611753565b810181811067ffffffffffffffff821117156117bb576117ba611764565b5b80604052505050565b60006117ce6116ff565b90506117da8282611793565b919050565b600067ffffffffffffffff8211156117fa576117f9611764565b5b61180382611753565b9050602081019050919050565b82818337600083830152505050565b600061183261182d846117df565b6117c4565b90508281526020810184848401111561184e5761184d61174e565b5b611859848285611810565b509392505050565b600082601f83011261187657611875611749565b5b813561188684826020860161181f565b91505092915050565b600080604083850312156118a6576118a5611709565b5b60006118b485828601611734565b925050602083013567ffffffffffffffff8111156118d5576118d461170e565b5b6118e185828601611861565b9150509250929050565b60006020828403121561190157611900611709565b5b600061190f84828501611734565b91505092915050565b61192181611713565b82525050565b600081519050919050565b600082825260208201905092915050565b60005b83811015611961578082015181840152602081019050611946565b60008484015250505050565b600061197882611927565b6119828185611932565b9350611992818560208601611943565b61199b81611753565b840191505092915050565b60006060820190506119bb6000830186611918565b81810360208301526119cd818561196d565b90506119dc6040830184611918565b949350505050565b600080604083850312156119fb576119fa611709565b5b600083013567ffffffffffffffff811115611a1957611a1861170e565b5b611a2585828601611861565b9250506020611a3685828601611734565b9150509250929050565b60008060408385031215611a5757611a56611709565b5b6000611a6585828601611734565b9250506020611a7685828601611734565b9150509250929050565b60008115159050919050565b611a9581611a80565b82525050565b600060c082019050611ab06000830189611918565b8181036020830152611ac2818861196d565b9050611ad16040830187611a8c565b611ade6060830186611918565b611aeb6080830185611918565b611af860a0830184611918565b979650505050505050565b600081519050919050565b600082825260208201905092915050565b6000819050602082019050919050565b611b3881611713565b82525050565b6000611b4a8383611b2f565b60208301905092915050565b6000602082019050919050565b6000611b6e82611b03565b611b788185611b0e565b9350611b8383611b1f565b8060005b83811015611bb4578151611b9b8882611b3e565b9750611ba683611b56565b925050600181019050611b87565b5085935050505092915050565b600081519050919050565b600082825260208201905092915050565b6000819050602082019050919050565b600082825260208201905092915050565b6000611c0982611927565b611c138185611bed565b9350611c23818560208601611943565b611c2c81611753565b840191505092915050565b6000611c438383611bfe565b905092915050565b6000602082019050919050565b6000611c6382611bc1565b611c6d8185611bcc565b935083602082028501611c7f85611bdd565b8060005b85811015611cbb5784840389528151611c9c8582611c37565b9450611ca783611c4b565b925060208a01995050600181019050611c83565b50829750879550505050505092915050565b600081519050919050565b600082825260208201905092915050565b6000819050602082019050919050565b611d0281611a80565b82525050565b6000611d148383611cf9565b60208301905092915050565b6000602082019050919050565b6000611d3882611ccd565b611d428185611cd8565b9350611d4d83611ce9565b8060005b83811015611d7e578151611d658882611d08565b9750611d7083611d20565b925050600181019050611d51565b5085935050505092915050565b600060a0820190508181036000830152611da58188611b63565b90508181036020830152611db98187611c58565b9050611dc86040830186611918565b8181036060830152611dda8185611b63565b90508181036080830152611dee8184611d2d565b90509695505050505050565b6000602082019050611e0f6000830184611918565b92915050565b600073ffffffffffffffffffffffffffffffffffffffff82169050919050565b6000611e4082611e15565b9050919050565b611e5081611e35565b82525050565b6000602082019050611e6b6000830184611e47565b92915050565b7f6f6e6c792061646d696e2063616e206163636573732069740000000000000000600082015250565b6000611ea7601883611932565b9150611eb282611e71565b602082019050919050565b60006020820190508181036000830152611ed681611e9a565b9050919050565b7f656c656374696f6e206973206e6f742061637469766500000000000000000000600082015250565b6000611f13601683611932565b9150611f1e82611edd565b602082019050919050565b60006020820190508181036000830152611f4281611f06565b9050919050565b7f656c656374696f6e20656e64656420616c726561647900000000000000000000600082015250565b6000611f7f601683611932565b9150611f8a82611f49565b602082019050919050565b60006020820190508181036000830152611fae81611f72565b9050919050565b7f656c656374696f6e20646f6573206e6f74206578697374730000000000000000600082015250565b6000611feb601883611932565b9150611ff682611fb5565b602082019050919050565b6000602082019050818103600083015261201a81611fde565b9050919050565b7f4e487b7100000000000000000000000000000000000000000000000000000000600052601160045260246000fd5b600061205b82611713565b91507fffffffffffffffffffffffffffffffffffffffffffffffffffffffffffffffff820361208d5761208c612021565b5b600182019050919050565b7f4e487b7100000000000000000000000000000000000000000000000000000000600052602260045260246000fd5b600060028204905060018216806120df57607f821691505b6020821081036120f2576120f1612098565b5b50919050565b60008190508160005260206000209050919050565b60006020601f8301049050919050565b600082821b905092915050565b60006008830261215a7fffffffffffffffffffffffffffffffffffffffffffffffffffffffffffffffff8261211d565b612164868361211d565b95508019841693508086168417925050509392505050565b6000819050919050565b60006121a161219c61219784611713565b61217c565b611713565b9050919050565b6000819050919050565b6121bb83612186565b6121cf6121c7826121a8565b84845461212a565b825550505050565b600090565b6121e46121d7565b6121ef8184846121b2565b505050565b5b81811015612213576122086000826121dc565b6001810190506121f5565b5050565b601f82111561225857612229816120f8565b6122328461210d565b81016020851015612241578190505b61225561224d8561210d565b8301826121f4565b50505b505050565b600082821c905092915050565b600061227b6000198460080261225d565b1980831691505092915050565b6000612294838361226a565b9150826002028217905092915050565b6122ad82611927565b67ffffffffffffffff8111156122c6576122c5611764565b5b6122d082546120c7565b6122db828285612217565b600060209050601f83116001811461230e57600084156122fc578287015190505b6123068582612288565b86555061236e565b601f19841661231c866120f8565b60005b828110156123445784890151825560018201915060208501945060208101905061231f565b86831015612361578489015161235d601f89168261226a565b8355505b6001600288020188555050505b505050505050565b60006020820190508181036000830152612390818461196d565b905092915050565b60006123a382611713565b91506123ae83611713565b92508282019050808211156123c6576123c5612021565b5b92915050565b600081905092915050565b600081546123e4816120c7565b6123ee81866123cc565b94506001821660008114612409576001811461241e57612451565b60ff1983168652811515820286019350612451565b612427856120f8565b60005b838110156124495781548189015260018201915060208101905061242a565b838801955050505b50505092915050565b600061246682846123d7565b915081905092915050565b7f456e6420656c656374696f6e206265666f72652064656c6574696e6700000000600082015250565b60006124a7601c83611932565b91506124b282612471565b602082019050919050565b600060208201905081810360008301526124d68161249a565b9050919050565b6000815490506124ec816120c7565b9050919050565b60008190508160005260206000209050919050565b8181036125165750506125ee565b61251f826124dd565b67ffffffffffffffff81111561253857612537611764565b5b61254282546120c7565b61254d828285612217565b6000601f83116001811461257c576000841561256a578287015490505b6125748582612288565b8655506125e7565b601f19841661258a876124f3565b9650612595866120f8565b60005b828110156125bd57848901548255600182019150600185019450602081019050612598565b868310156125da57848901546125d6601f89168261226a565b8355505b6001600288020188555050505b5050505050505b565b60006125fb82611713565b91506000820361260e5761260d612021565b5b600182039050919050565b7f4e487b7100000000000000000000000000000000000000000000000000000000600052603260045260246000fd5b7f656c656374696f6e20697320616c726561647920656e64656400000000000000600082015250565b600061267e601983611932565b915061268982612648565b602082019050919050565b600060208201905081810360008301526126ad81612671565b9050919050565b600081546126c1816120c7565b6126cb8186611932565b945060018216600081146126e657600181146126fc5761272f565b60ff19831686528115156020028601935061272f565b612705856120f8565b60005b8381101561272757815481890152600182019150602081019050612708565b808801955050505b50505092915050565b600060808201905061274d6000830187611918565b61275a6020830186611918565b818103604083015261276c81856126b4565b905061277b6060830184611918565b95945050505050565b7f63616e20766f7465206f6e6c79206f6e63650000000000000000000000000000600082015250565b60006127ba601283611932565b91506127c582612784565b602082019050919050565b600060208201905081810360008301526127e9816127ad565b9050919050565b7f696e76616c69642063616e646964617465206964000000000000000000000000600082015250565b6000612826601483611932565b9150612831826127f0565b602082019050919050565b6000602082019050818103600083015261285581612819565b905091905056fea26469706673582212205ce38ec761c18ba414777c13f8805b1e4cdf91677b9ff1e2c3b8687b7f27426364736f6c63430008140033",
  "linkReferences": {},
  "deployedLinkReferences": {}
}